{
  "contractName": "UserDataStorage",
  "abi": [
    {
      "inputs": [],
      "stateMutability": "nonpayable",
      "type": "constructor"
    },
    {
      "inputs": [
        {
          "internalType": "string",
          "name": "_userId",
          "type": "string"
        },
        {
          "internalType": "string",
          "name": "_userName",
          "type": "string"
        },
        {
          "internalType": "string",
          "name": "_documentHash",
          "type": "string"
        },
        {
          "internalType": "string",
          "name": "_documentPath",
          "type": "string"
        },
        {
          "internalType": "uint256",
          "name": "_duration",
          "type": "uint256"
        }
      ],
      "name": "setUserDetails",
      "outputs": [],
      "stateMutability": "nonpayable",
      "type": "function"
    },
    {
      "inputs": [
        {
          "internalType": "string",
          "name": "_userId",
          "type": "string"
        }
      ],
      "name": "getDocPath",
      "outputs": [
        {
          "internalType": "string",
          "name": "",
          "type": "string"
        }
      ],
      "stateMutability": "view",
      "type": "function",
      "constant": true
    },
    {
      "inputs": [
        {
          "internalType": "string",
          "name": "_userId",
          "type": "string"
        }
      ],
      "name": "getUserName",
      "outputs": [
        {
          "internalType": "string",
          "name": "",
          "type": "string"
        }
      ],
      "stateMutability": "view",
      "type": "function",
      "constant": true
    },
    {
      "inputs": [
        {
          "internalType": "string",
          "name": "_message",
          "type": "string"
        }
      ],
      "name": "docHashExists",
      "outputs": [
        {
          "internalType": "bool",
          "name": "",
          "type": "bool"
        }
      ],
      "stateMutability": "view",
      "type": "function",
      "constant": true
    },
    {
      "inputs": [
        {
          "internalType": "string",
          "name": "_userId",
          "type": "string"
        }
      ],
      "name": "checkUserIdExists",
      "outputs": [
        {
          "internalType": "bool",
          "name": "",
          "type": "bool"
        }
      ],
      "stateMutability": "view",
      "type": "function",
      "constant": true
    },
    {
      "inputs": [
        {
          "internalType": "string",
          "name": "_userId",
          "type": "string"
        }
      ],
      "name": "isUserValid",
      "outputs": [
        {
          "internalType": "uint256",
          "name": "",
          "type": "uint256"
        }
      ],
      "stateMutability": "view",
      "type": "function",
      "constant": true
    }
  ],
  "bytecode": "0x608060405234801561001057600080fd5b50336000806101000a81548173ffffffffffffffffffffffffffffffffffffffff021916908373ffffffffffffffffffffffffffffffffffffffff160217905550610fb2806100606000396000f3fe608060405234801561001057600080fd5b50600436106100625760003560e01c806315205c931461006757806367261c57146100835780637228c6e0146100b35780638ba3ef2e146100e3578063a201738914610113578063f6b6dd8514610143575b600080fd5b610081600480360381019061007c91906107a9565b610173565b005b61009d60048036038101906100989190610894565b610417565b6040516100aa91906108f8565b60405180910390f35b6100cd60048036038101906100c89190610894565b61044c565b6040516100da9190610992565b60405180910390f35b6100fd60048036038101906100f89190610894565b6104fc565b60405161010a91906108f8565b60405180910390f35b61012d60048036038101906101289190610894565b610531565b60405161013a9190610992565b60405180910390f35b61015d60048036038101906101589190610894565b6105e1565b60405161016a91906109c3565b60405180910390f35b60008054906101000a900473ffffffffffffffffffffffffffffffffffffffff1673ffffffffffffffffffffffffffffffffffffffff163373ffffffffffffffffffffffffffffffffffffffff1614610201576040517f08c379a00000000000000000000000000000000000000000000000000000000081526004016101f890610a50565b60405180910390fd5b6000855111610245576040517f08c379a000000000000000000000000000000000000000000000000000000000815260040161023c90610abc565b60405180910390fd5b6001856040516102559190610b18565b908152602001604051809103902060009054906101000a900460ff16156102b1576040517f08c379a00000000000000000000000000000000000000000000000000000000081526004016102a890610b7b565b60405180910390fd5b600180866040516102c29190610b18565b908152602001604051809103902060006101000a81548160ff021916908315150217905550836004866040516102f89190610b18565b908152602001604051809103902090816103129190610da7565b506002836040516103239190610b18565b908152602001604051809103902060009054906101000a900460ff161561037f576040517f08c379a000000000000000000000000000000000000000000000000000000000815260040161037690610ec5565b60405180910390fd5b60016002846040516103919190610b18565b908152602001604051809103902060006101000a81548160ff021916908315150217905550816003866040516103c79190610b18565b908152602001604051809103902090816103e19190610da7565b5080426103ee9190610f14565b6005866040516103fe9190610b18565b9081526020016040518091039020819055505050505050565b60006001826040516104299190610b18565b908152602001604051809103902060009054906101000a900460ff169050919050565b606060048260405161045e9190610b18565b9081526020016040518091039020805461047790610bca565b80601f01602080910402602001604051908101604052809291908181526020018280546104a390610bca565b80156104f05780601f106104c5576101008083540402835291602001916104f0565b820191906000526020600020905b8154815290600101906020018083116104d357829003601f168201915b50505050509050919050565b600060028260405161050e9190610b18565b908152602001604051809103902060009054906101000a900460ff169050919050565b60606003826040516105439190610b18565b9081526020016040518091039020805461055c90610bca565b80601f016020809104026020016040519081016040528092919081815260200182805461058890610bca565b80156105d55780601f106105aa576101008083540402835291602001916105d5565b820191906000526020600020905b8154815290600101906020018083116105b857829003601f168201915b50505050509050919050565b600080426005846040516105f59190610b18565b90815260200160405180910390205461060e9190610f48565b905080915050919050565b6000604051905090565b600080fd5b600080fd5b600080fd5b600080fd5b6000601f19601f8301169050919050565b7f4e487b7100000000000000000000000000000000000000000000000000000000600052604160045260246000fd5b61068082610637565b810181811067ffffffffffffffff8211171561069f5761069e610648565b5b80604052505050565b60006106b2610619565b90506106be8282610677565b919050565b600067ffffffffffffffff8211156106de576106dd610648565b5b6106e782610637565b9050602081019050919050565b82818337600083830152505050565b6000610716610711846106c3565b6106a8565b90508281526020810184848401111561073257610731610632565b5b61073d8482856106f4565b509392505050565b600082601f83011261075a5761075961062d565b5b813561076a848260208601610703565b91505092915050565b6000819050919050565b61078681610773565b811461079157600080fd5b50565b6000813590506107a38161077d565b92915050565b600080600080600060a086880312156107c5576107c4610623565b5b600086013567ffffffffffffffff8111156107e3576107e2610628565b5b6107ef88828901610745565b955050602086013567ffffffffffffffff8111156108105761080f610628565b5b61081c88828901610745565b945050604086013567ffffffffffffffff81111561083d5761083c610628565b5b61084988828901610745565b935050606086013567ffffffffffffffff81111561086a57610869610628565b5b61087688828901610745565b925050608061088788828901610794565b9150509295509295909350565b6000602082840312156108aa576108a9610623565b5b600082013567ffffffffffffffff8111156108c8576108c7610628565b5b6108d484828501610745565b91505092915050565b60008115159050919050565b6108f2816108dd565b82525050565b600060208201905061090d60008301846108e9565b92915050565b600081519050919050565b600082825260208201905092915050565b60005b8381101561094d578082015181840152602081019050610932565b60008484015250505050565b600061096482610913565b61096e818561091e565b935061097e81856020860161092f565b61098781610637565b840191505092915050565b600060208201905081810360008301526109ac8184610959565b905092915050565b6109bd81610773565b82525050565b60006020820190506109d860008301846109b4565b92915050565b7f4f6e6c792074686520636f6e7472616374206f776e65722063616e2063616c6c60008201527f20746869732066756e6374696f6e000000000000000000000000000000000000602082015250565b6000610a3a602e8361091e565b9150610a45826109de565b604082019050919050565b60006020820190508181036000830152610a6981610a2d565b9050919050565b7f557365722049442063616e6e6f7420626520656d707479000000000000000000600082015250565b6000610aa660178361091e565b9150610ab182610a70565b602082019050919050565b60006020820190508181036000830152610ad581610a99565b9050919050565b600081905092915050565b6000610af282610913565b610afc8185610adc565b9350610b0c81856020860161092f565b80840191505092915050565b6000610b248284610ae7565b915081905092915050565b7f5573657220494420616c72656164792074616b656e0000000000000000000000600082015250565b6000610b6560158361091e565b9150610b7082610b2f565b602082019050919050565b60006020820190508181036000830152610b9481610b58565b9050919050565b7f4e487b7100000000000000000000000000000000000000000000000000000000600052602260045260246000fd5b60006002820490506001821680610be257607f821691505b602082108103610bf557610bf4610b9b565b5b50919050565b60008190508160005260206000209050919050565b60006020601f8301049050919050565b600082821b905092915050565b600060088302610c5d7fffffffffffffffffffffffffffffffffffffffffffffffffffffffffffffffff82610c20565b610c678683610c20565b95508019841693508086168417925050509392505050565b6000819050919050565b6000610ca4610c9f610c9a84610773565b610c7f565b610773565b9050919050565b6000819050919050565b610cbe83610c89565b610cd2610cca82610cab565b848454610c2d565b825550505050565b600090565b610ce7610cda565b610cf2818484610cb5565b505050565b5b81811015610d1657610d0b600082610cdf565b600181019050610cf8565b5050565b601f821115610d5b57610d2c81610bfb565b610d3584610c10565b81016020851015610d44578190505b610d58610d5085610c10565b830182610cf7565b50505b505050565b600082821c905092915050565b6000610d7e60001984600802610d60565b1980831691505092915050565b6000610d978383610d6d565b9150826002028217905092915050565b610db082610913565b67ffffffffffffffff811115610dc957610dc8610648565b5b610dd38254610bca565b610dde828285610d1a565b600060209050601f831160018114610e115760008415610dff578287015190505b610e098582610d8b565b865550610e71565b601f198416610e1f86610bfb565b60005b82811015610e4757848901518255600182019150602085019450602081019050610e22565b86831015610e645784890151610e60601f891682610d6d565b8355505b6001600288020188555050505b505050505050565b7f446f63756d656e74206861736820616c72656164792065786973747300000000600082015250565b6000610eaf601c8361091e565b9150610eba82610e79565b602082019050919050565b60006020820190508181036000830152610ede81610ea2565b9050919050565b7f4e487b7100000000000000000000000000000000000000000000000000000000600052601160045260246000fd5b6000610f1f82610773565b9150610f2a83610773565b9250828201905080821115610f4257610f41610ee5565b5b92915050565b6000610f5382610773565b9150610f5e83610773565b9250828203905081811115610f7657610f75610ee5565b5b9291505056fea264697066735822122097eed3b76391ddf8c14128af64dc867d311d44813f74629183915746d6f1c8b564736f6c63430008110033",
  "immutableReferences": {},
  "source": "// SPDX-License-Identifier: MIT\r\npragma solidity ^0.8.0;\r\n\r\ncontract UserDataStorage {\r\n    address private owner;\r\n\r\n    modifier onlyOwner() {\r\n        require(msg.sender == owner, \"Only the contract owner can call this function\");\r\n        _;\r\n    }\r\n\r\n    constructor() {\r\n        owner = msg.sender;\r\n    }\r\n\r\n    mapping(string => bool) private userIdExists;\r\n    mapping(string => bool) private docHashExistsMap;\r\n    // mapping(string => string) private docHash;\r\n    mapping(string => string) private docPath;\r\n    mapping(string => string) private username;\r\n    mapping(string => uint256) private accessDuration; // New mapping for access duration\r\n\r\n    // Function to set user details including userId, username, document hash, document path, and access duration\r\n    function setUserDetails(\r\n        string memory _userId,\r\n        string memory _userName,\r\n        string memory _documentHash,\r\n        string memory _documentPath,\r\n        uint256 _duration\r\n    ) public onlyOwner {\r\n        require(bytes(_userId).length > 0, \"User ID cannot be empty\");\r\n        require(!userIdExists[_userId], \"User ID already taken\");\r\n        userIdExists[_userId] = true;\r\n        username[_userId] = _userName;\r\n        require(!docHashExistsMap[_documentHash], \"Document hash already exists\");\r\n        docHashExistsMap[_documentHash] = true;\r\n        docPath[_userId] = _documentPath;\r\n        accessDuration[_userId] = block.timestamp + _duration; // Set access duration expiration timestamp\r\n    }\r\n\r\n    // Function to get a document path by userId\r\n    function getDocPath(string memory _userId) public view returns (string memory) {\r\n        return docPath[_userId];\r\n    }\r\n    // Function to get a username by userId\r\n    function getUserName(string memory _userId) public view returns (string memory) {\r\n        return username[_userId];\r\n    }\r\n\r\n    // Function to check if a document hash exists without providing the userId\r\n    function docHashExists(string memory _message) public view returns (bool) {\r\n        return docHashExistsMap[_message];\r\n    }\r\n\r\n    // Function to check if a userId exists\r\n    function checkUserIdExists(string memory _userId) public view returns (bool) {\r\n        return userIdExists[_userId];\r\n    }\r\n\r\n    // Function to check if the user is valid to access the document based on the current date\r\n    function isUserValid(string memory _userId) public view returns (uint256) {\r\n        uint256 duration = accessDuration[_userId]-block.timestamp;\r\n        return duration;\r\n    }\r\n}\r\n",
  "sourcePath": "F:\\major project\\contracts\\userContract.sol",
  "compiler": {
    "name": "solc",
    "version": "0.8.17+commit.8df45f5f.Emscripten.clang"
  },
  "schemaVersion": "3.4.10",
  "updatedAt": "2024-04-11T18:03:33.531Z",
  "networkType": "ethereum",
  "devdoc": {
    "kind": "dev",
    "methods": {},
    "version": 1
  },
  "userdoc": {
    "kind": "user",
    "methods": {},
    "version": 1
  }
}