{
  "contractName": "UserDataStorage",
  "abi": [
    {
      "inputs": [],
      "stateMutability": "nonpayable",
      "type": "constructor"
    },
    {
      "inputs": [
        {
          "internalType": "string",
          "name": "_userId",
          "type": "string"
        },
        {
          "internalType": "string",
          "name": "_userName",
          "type": "string"
        },
        {
          "internalType": "string",
          "name": "_documentHash",
          "type": "string"
        },
        {
          "internalType": "string",
          "name": "_documentPath",
          "type": "string"
        }
      ],
      "name": "setUserDetails",
      "outputs": [],
      "stateMutability": "nonpayable",
      "type": "function"
    },
    {
      "inputs": [
        {
          "internalType": "string",
          "name": "_userId",
          "type": "string"
        }
      ],
      "name": "getDocHashByUserId",
      "outputs": [
        {
          "internalType": "string",
          "name": "",
          "type": "string"
        }
      ],
      "stateMutability": "view",
      "type": "function",
      "constant": true
    },
    {
      "inputs": [
        {
          "internalType": "string",
          "name": "_userId",
          "type": "string"
        }
      ],
      "name": "getDocPath",
      "outputs": [
        {
          "internalType": "string",
          "name": "",
          "type": "string"
        }
      ],
      "stateMutability": "view",
      "type": "function",
      "constant": true
    },
    {
      "inputs": [
        {
          "internalType": "string",
          "name": "_message",
          "type": "string"
        }
      ],
      "name": "docHashExists",
      "outputs": [
        {
          "internalType": "bool",
          "name": "",
          "type": "bool"
        }
      ],
      "stateMutability": "view",
      "type": "function",
      "constant": true
    },
    {
      "inputs": [
        {
          "internalType": "string",
          "name": "_userId",
          "type": "string"
        }
      ],
      "name": "checkUserIdExists",
      "outputs": [
        {
          "internalType": "bool",
          "name": "",
          "type": "bool"
        }
      ],
      "stateMutability": "view",
      "type": "function",
      "constant": true
    }
  ],
  "bytecode": "0x608060405234801561001057600080fd5b50336000806101000a81548173ffffffffffffffffffffffffffffffffffffffff021916908373ffffffffffffffffffffffffffffffffffffffff160217905550610e3b806100606000396000f3fe608060405234801561001057600080fd5b50600436106100575760003560e01c80633e45e0c61461005c57806367261c571461007857806384831f73146100a85780638ba3ef2e146100d8578063a201738914610108575b600080fd5b610076600480360381019061007191906106fd565b610138565b005b610092600480360381019061008d91906107d4565b6103d9565b60405161009f9190610838565b60405180910390f35b6100c260048036038101906100bd91906107d4565b61040e565b6040516100cf91906108d2565b60405180910390f35b6100f260048036038101906100ed91906107d4565b6104be565b6040516100ff9190610838565b60405180910390f35b610122600480360381019061011d91906107d4565b6104f3565b60405161012f91906108d2565b60405180910390f35b60008054906101000a900473ffffffffffffffffffffffffffffffffffffffff1673ffffffffffffffffffffffffffffffffffffffff163373ffffffffffffffffffffffffffffffffffffffff16146101c6576040517f08c379a00000000000000000000000000000000000000000000000000000000081526004016101bd90610966565b60405180910390fd5b600084511161020a576040517f08c379a0000000000000000000000000000000000000000000000000000000008152600401610201906109d2565b60405180910390fd5b60018460405161021a9190610a2e565b908152602001604051809103902060009054906101000a900460ff1615610276576040517f08c379a000000000000000000000000000000000000000000000000000000000815260040161026d90610a91565b60405180910390fd5b600180856040516102879190610a2e565b908152602001604051809103902060006101000a81548160ff021916908315150217905550826005856040516102bd9190610a2e565b908152602001604051809103902090816102d79190610cc7565b506002826040516102e89190610a2e565b908152602001604051809103902060009054906101000a900460ff1615610344576040517f08c379a000000000000000000000000000000000000000000000000000000000815260040161033b90610de5565b60405180910390fd5b816003856040516103559190610a2e565b9081526020016040518091039020908161036f9190610cc7565b5060016002836040516103829190610a2e565b908152602001604051809103902060006101000a81548160ff021916908315150217905550806004856040516103b89190610a2e565b908152602001604051809103902090816103d29190610cc7565b5050505050565b60006001826040516103eb9190610a2e565b908152602001604051809103902060009054906101000a900460ff169050919050565b60606003826040516104209190610a2e565b9081526020016040518091039020805461043990610ae0565b80601f016020809104026020016040519081016040528092919081815260200182805461046590610ae0565b80156104b25780601f10610487576101008083540402835291602001916104b2565b820191906000526020600020905b81548152906001019060200180831161049557829003601f168201915b50505050509050919050565b60006002826040516104d09190610a2e565b908152602001604051809103902060009054906101000a900460ff169050919050565b60606004826040516105059190610a2e565b9081526020016040518091039020805461051e90610ae0565b80601f016020809104026020016040519081016040528092919081815260200182805461054a90610ae0565b80156105975780601f1061056c57610100808354040283529160200191610597565b820191906000526020600020905b81548152906001019060200180831161057a57829003601f168201915b50505050509050919050565b6000604051905090565b600080fd5b600080fd5b600080fd5b600080fd5b6000601f19601f8301169050919050565b7f4e487b7100000000000000000000000000000000000000000000000000000000600052604160045260246000fd5b61060a826105c1565b810181811067ffffffffffffffff82111715610629576106286105d2565b5b80604052505050565b600061063c6105a3565b90506106488282610601565b919050565b600067ffffffffffffffff821115610668576106676105d2565b5b610671826105c1565b9050602081019050919050565b82818337600083830152505050565b60006106a061069b8461064d565b610632565b9050828152602081018484840111156106bc576106bb6105bc565b5b6106c784828561067e565b509392505050565b600082601f8301126106e4576106e36105b7565b5b81356106f484826020860161068d565b91505092915050565b60008060008060808587031215610717576107166105ad565b5b600085013567ffffffffffffffff811115610735576107346105b2565b5b610741878288016106cf565b945050602085013567ffffffffffffffff811115610762576107616105b2565b5b61076e878288016106cf565b935050604085013567ffffffffffffffff81111561078f5761078e6105b2565b5b61079b878288016106cf565b925050606085013567ffffffffffffffff8111156107bc576107bb6105b2565b5b6107c8878288016106cf565b91505092959194509250565b6000602082840312156107ea576107e96105ad565b5b600082013567ffffffffffffffff811115610808576108076105b2565b5b610814848285016106cf565b91505092915050565b60008115159050919050565b6108328161081d565b82525050565b600060208201905061084d6000830184610829565b92915050565b600081519050919050565b600082825260208201905092915050565b60005b8381101561088d578082015181840152602081019050610872565b60008484015250505050565b60006108a482610853565b6108ae818561085e565b93506108be81856020860161086f565b6108c7816105c1565b840191505092915050565b600060208201905081810360008301526108ec8184610899565b905092915050565b7f4f6e6c792074686520636f6e7472616374206f776e65722063616e2063616c6c60008201527f20746869732066756e6374696f6e000000000000000000000000000000000000602082015250565b6000610950602e8361085e565b915061095b826108f4565b604082019050919050565b6000602082019050818103600083015261097f81610943565b9050919050565b7f557365722049442063616e6e6f7420626520656d707479000000000000000000600082015250565b60006109bc60178361085e565b91506109c782610986565b602082019050919050565b600060208201905081810360008301526109eb816109af565b9050919050565b600081905092915050565b6000610a0882610853565b610a1281856109f2565b9350610a2281856020860161086f565b80840191505092915050565b6000610a3a82846109fd565b915081905092915050565b7f5573657220494420616c72656164792074616b656e0000000000000000000000600082015250565b6000610a7b60158361085e565b9150610a8682610a45565b602082019050919050565b60006020820190508181036000830152610aaa81610a6e565b9050919050565b7f4e487b7100000000000000000000000000000000000000000000000000000000600052602260045260246000fd5b60006002820490506001821680610af857607f821691505b602082108103610b0b57610b0a610ab1565b5b50919050565b60008190508160005260206000209050919050565b60006020601f8301049050919050565b600082821b905092915050565b600060088302610b737fffffffffffffffffffffffffffffffffffffffffffffffffffffffffffffffff82610b36565b610b7d8683610b36565b95508019841693508086168417925050509392505050565b6000819050919050565b6000819050919050565b6000610bc4610bbf610bba84610b95565b610b9f565b610b95565b9050919050565b6000819050919050565b610bde83610ba9565b610bf2610bea82610bcb565b848454610b43565b825550505050565b600090565b610c07610bfa565b610c12818484610bd5565b505050565b5b81811015610c3657610c2b600082610bff565b600181019050610c18565b5050565b601f821115610c7b57610c4c81610b11565b610c5584610b26565b81016020851015610c64578190505b610c78610c7085610b26565b830182610c17565b50505b505050565b600082821c905092915050565b6000610c9e60001984600802610c80565b1980831691505092915050565b6000610cb78383610c8d565b9150826002028217905092915050565b610cd082610853565b67ffffffffffffffff811115610ce957610ce86105d2565b5b610cf38254610ae0565b610cfe828285610c3a565b600060209050601f831160018114610d315760008415610d1f578287015190505b610d298582610cab565b865550610d91565b601f198416610d3f86610b11565b60005b82811015610d6757848901518255600182019150602085019450602081019050610d42565b86831015610d845784890151610d80601f891682610c8d565b8355505b6001600288020188555050505b505050505050565b7f446f63756d656e74206861736820616c72656164792065786973747300000000600082015250565b6000610dcf601c8361085e565b9150610dda82610d99565b602082019050919050565b60006020820190508181036000830152610dfe81610dc2565b905091905056fea26469706673582212204a342d0d20e8d13e5cb6e6268a120e162d07913a9f3ea127f52d1bbfb75430b864736f6c63430008110033",
  "immutableReferences": {},
  "source": "// SPDX-License-Identifier: MIT\r\npragma solidity ^0.8.0;\r\n\r\ncontract UserDataStorage {\r\n    address private owner;\r\n\r\n    modifier onlyOwner() {\r\n        require(msg.sender == owner, \"Only the contract owner can call this function\");\r\n        _;\r\n    }\r\n\r\n    constructor() {\r\n        owner = msg.sender;\r\n    }\r\n\r\n    mapping(string => bool) private userIdExists;\r\n    mapping(string => bool) private docHashExistsMap;\r\n    mapping(string => string) private docHash;\r\n    mapping(string => string) private docPath;\r\n    mapping(string => string) private username;\r\n\r\n    // Function to set user details including userId, username, document hash, and document path\r\n    function setUserDetails(string memory _userId, string memory _userName, string memory _documentHash, string memory _documentPath) public onlyOwner {\r\n        require(bytes(_userId).length > 0, \"User ID cannot be empty\");\r\n        require(!userIdExists[_userId], \"User ID already taken\");\r\n\r\n        userIdExists[_userId] = true;\r\n        username[_userId] = _userName;\r\n\r\n        require(!docHashExistsMap[_documentHash], \"Document hash already exists\");\r\n        docHash[_userId] = _documentHash;\r\n        docHashExistsMap[_documentHash] = true;\r\n\r\n        docPath[_userId] = _documentPath;\r\n    }\r\n\r\n    // Function to get a document hash by userId\r\n    function getDocHashByUserId(string memory _userId) public view returns (string memory) {\r\n        return docHash[_userId];\r\n    }\r\n    // Function to get a document path by userId\r\n    function getDocPath(string memory _userId) public view returns (string memory) {\r\n        return docPath[_userId];\r\n    }\r\n    // Function to check if a document hash exists without providing the userId\r\n    function docHashExists(string memory _message) public view returns (bool) {\r\n        return docHashExistsMap[_message];\r\n    }\r\n    // Function to check if a userId exists\r\n    function checkUserIdExists(string memory _userId) public view returns (bool) {\r\n        return userIdExists[_userId];\r\n    }\r\n\r\n}\r\n",
  "sourcePath": "F:\\major project\\contracts\\userContract.sol",
  "compiler": {
    "name": "solc",
    "version": "0.8.17+commit.8df45f5f.Emscripten.clang"
  },
  "schemaVersion": "3.4.10",
  "updatedAt": "2023-11-10T11:46:37.681Z",
  "networkType": "ethereum",
  "devdoc": {
    "kind": "dev",
    "methods": {},
    "version": 1
  },
  "userdoc": {
    "kind": "user",
    "methods": {},
    "version": 1
  }
}